:020000040800F2
:10000000602900209901000829120008AB1000089F
:1000100025120008DF020008CD14000800000000CF
:1000200000000000000000000000000001010008C6
:10003000FD020008000000004501000855120008FC
:10004000B3010008B3010008B3010008B3010008C0
:10005000B3010008B3010008B3010008B3010008B0
:10006000B3010008B3010008B3010008B3010008A0
:10007000B3010008B3010008B3010008B301000890
:10008000B3010008B3010008B3010008B301000880
:10009000B3010008B3010008B3010008B301000870
:1000A000B3010008B3010008B3010008B301000860
:1000B000B3010008B3010008B3010008B301000850
:1000C000B3010008B3010008B3010008B301000840
:1000D000B3010008C5140008B3010008B30100080B
:1000E000B3010008B3010008B3010008DFF80CD029
:1000F00000F0B8F800480047E11800086029002027
:10010000224B19680868B0E8F00F80F30988BFF344
:100110006F8F4FF0000080F311884EF00D0E704786
:100120000000000006480068006880F3088862B696
:1001300061B6BFF34F8FBFF36F8F00DF00BF00BF0B
:1001400008ED00E0EFF30980BFF36F8F0F4B1A68E3
:1001500020E9F00F106008B54FF0500080F31188CF
:10016000BFF34F8FBFF36F8F04F0F8F84FF000002C
:1001700080F31188BDE8084019680868B0E8F00FFE
:1001800080F30988BFF36F8F704700BF44030020DE
:10019000EFF3058070470000064880470648004797
:1001A000FEE7FEE7FEE7FEE7FEE7FEE7FEE7FEE727
:1001B000FEE7FEE7CF120008ED00000840EA010369
:1001C0009B0703D009E008C9121F08C0042AFAD20D
:1001D00003E011F8013B00F8013B521EF9D27047D1
:1001E000D2B201E000F8012B491EFBD27047002279
:1001F000F6E710B513460A4604461946FFF7F0FF26
:10020000204610BD10B5002200E0521C835C8C5CBF
:10021000A34201D1002BF8D1D8B2E1B2401A10BDEF
:1002200070B50F4D00B92868002412E00A4602E0BC
:100230009E4203D0521C1378002BF9D1DAB222432C
:1002400005D02BB124B1002100F8011B04E00446C5
:10025000401C0678002EE9D12860204670BD0000C1
:10026000C4030020064C074D06E0E06840F001039F
:1002700094E8070098471034AC42F6D3FFF73AFFF2
:10028000E46D0008046E000870B58C1810F8015B6E
:1002900015F0070301D110F8013B2A1106D110F81F
:1002A000012B03E010F8016B01F8016B5B1EF9D123
:1002B0002B0705D40023521E0DD401F8013BFAE7A9
:1002C00010F8013BCB1A921C03E013F8015B01F814
:1002D000015B521EF9D5A142D8D3002070BD00BFEA
:1002E000FEE7000010B504460A2304222146024816
:1002F00000F07CFE10BD0000440B0020704772B679
:1003000000BFFEE72DE9F8470346002294466EE160
:100310004FF0010808FA02F4D1F8008008EA04005E
:10032000A0427DD1DFF8DCA2D1F80480A8EB0A0955
:10033000D0453AD014DCB8F1030F50D009DCB8F145
:10034000000F31D0B8F1010F1CD0B8F1020F49D124
:1003500020E0B8F1110F18D0B8F1120F42D11EE011
:10036000B9F5881F25D006DCB9F5803F20D0B9F556
:10037000801F37D11AE0B9F5001F18D0B9F5041F56
:1003800030D117E0D1F80CC02DE0D1F80C8008F185
:10039000040C28E0D1F80C8008F1080C23E0D1F817
:1003A0000C8008F10C0C1EE000BF00BF00BF00BFB6
:1003B00000BF00BFD1F80880B8F1000F02D14FF0A4
:1003C000040C0BE0D1F80880B8F1010F03D14FF015
:1003D000080C1C6102E04FF0080C5C6103E04FF078
:1003E000000C00E000BF00BFFF2801D8984601E0E4
:1003F00003F104084646FF2802D84FEA820803E0CA
:10040000A2F108084FEA88084746D6F800804FF066
:100410000F0909FA07F928EA09080CFA07F900E0B8
:1004200088E048EA0908C6F80080D1F8048008F09E
:100430008058B8F1805F7DD100BFDFF8CC81D8F85B
:10044000188048F00108DFF8C091C9F81880C84644
:10045000D8F8188008F00108CDF8008000BF00BF70
:100460004FEAB9384FEA920958F829504FEA827892
:100470004FEA18794FF00F0808FA09F825EA08053D
:10048000DFF88881434502D14FF0000816E0DFF81D
:100490008081434502D14FF001080FE0DFF87481FD
:1004A000434502D14FF0020808E0DFF86C81434574
:1004B00002D14FF0030801E04FF004084FEA8279BF
:1004C0004FEA197908FA09F848EA0505DFF84C817E
:1004D0004FEA920948F82950D1F8048008F48018AE
:1004E000B8F5801F0AD1DFF83881D8F8008048EAD3
:1004F0000008DFF82C91C9F8008009E0DFF82081BE
:10050000D8F8008028EA0008DFF81491C9F80080C4
:10051000D1F8048008F40018B8F5001F10D1DFF8F6
:10052000008108F10408D8F8008048EA0008DFF8E4
:10053000F09000E05AE009F10409C9F800800DE0EC
:10054000DFF8DC8008F10408D8F8008028EA000809
:10055000DFF8CC9009F10409C9F80080D1F80480D3
:1005600008F40038B8F5003F0ED1DFF8B480A8F1E8
:100570000408D8F8008048EA0008DFF8A490A9F140
:100580000409C9F800800DE0DFF89480A8F10408A0
:10059000D8F8008028EA0008DFF88490A9F104095F
:1005A000C9F80080D1F8048008F48038B8F5803F9D
:1005B0000ED1DFF86C80A8F10808D8F8008048EA6E
:1005C0000008DFF85C90A9F10809C9F800800DE087
:1005D000DFF84C80A8F10808D8F8008028EA000865
:1005E000DFF83C90A9F10809C9F80080521CD1F845
:1005F000008028FA02F8B8F1000F7FF489AEBDE858
:10060000F8870000000011100010024000080140AF
:10061000000C01400010014000140140080001409E
:1006200008040140024693680B400BB1012000E032
:10063000002070470AB1016101E00B0403617047BB
:100640000148006870470000340300200348006838
:1006500003490978084401490860704734030020C1
:100660003C03002010B50848006840F0100006491F
:100670000860032000F0AEF80F2000F007F800F04B
:100680002BF8002010BD00000020024070B5044689
:100690000E4800784FF47A71B1FBF0F00C4909680C
:1006A000B1FBF0F5284600F0FFFB08B1012070BD5A
:1006B000102C07D200222146501E00F04DF80548AC
:1006C000046001E00120F2E70020F0E73C03002095
:1006D000400300203803002008B500BF144880699B
:1006E00040F00100124988610846806900F001006D
:1006F000009000BF00BF00BF0846C06940F08050B6
:10070000C8610846C06900F08050009000BF00BF7B
:1007100000220F21901E00F01FF800BF0549486815
:1007200020F0E06040F00070486000BF08BD0000AD
:10073000001002400000014001460846002809DB85
:1007400000F01F0301229A4043099B0003F1E023BC
:10075000C3F8002100BF70472DE9F05F80460D46C9
:100760001646002700F0B4FE074639462A463346AF
:1007700001F00700C0F1070ABAF1040F02D94FF0E7
:10078000040A01E0C0F1070AD14600F1040ABAF1F7
:10079000070F02D24FF0000A01E0A0F1030AD4468D
:1007A0004FF0010A0AFA09FAAAF1010A0AEA020A52
:1007B0000AFA0CFA4FF0010B0BFA0CFBABF1010B30
:1007C0000BEA030B4AEA0B042146404600F088FE80
:1007D000BDE8F09F00BF00F00702064B19684FF616
:1007E000FF031940044B0B4343EA0221014B1960FC
:1007F00000BF70470CED00E00000FA0570B504463C
:100800000D460CB9012070BD5A48006800F0070081
:10081000A8420ED25748006820F0070028435549E7
:1008200008600846006800F00700A84201D00120D7
:10083000E9E7207800F0020002281DD1207800F0BE
:100840000400042805D14C48406840F4E0604A495F
:100850004860207800F00800082805D14648406824
:1008600040F46050444948604348406820F0F0003C
:10087000A168084340494860207800F0010078B33F
:100880006068012806D13C48006800F4003090B947
:100890000120B8E76068022806D13748006800F0F8
:1008A000007040B90120AEE73348006800F0020054
:1008B00008B90120A7E73048406820F003006168CC
:1008C00008432D494860FFF7BBFE064609E0FFF7E5
:1008D000B7FE801B41F28831884202D9032092E79B
:1008E00007E02548406800F00C006168B0EB810F1C
:1008F000EDD12048006800F00700A8420ED91D483D
:10090000006820F0070028431A490860084600687C
:1009100000F00700A84201D0012074E7207800F021
:100920000400042807D11448406820F4E060E1681E
:10093000084311494860207800F00800082808D1D1
:100940000D48406820F46050216940EAC1000A491E
:10095000486000F03FF808494968C1F30311074AAD
:10096000515CC8400649086006480068FFF78EFEE3
:10097000002048E70020024000100240666D000899
:100980004003002038030020014800687047000041
:100990004003002000B5FFF7F7FF04494968C1F3A1
:1009A0000221034A515CC84000BD00000010024013
:1009B000766D000800B5FFF7E7FF04494968C1F309
:1009C000C221034A515CC84000BD00000010024033
:1009D000766D000870B5002100220024002300205D
:1009E000134D696801F00C05F5B1042D02D0082DF6
:1009F00019D101E00F4819E00F4DC1F38346AB5DFB
:100A000001F4803555B10A4D6D68C5F340450B4E74
:100A1000725D084D5D43B5FBF2F402E0084D03FB47
:100A200005F4204602E000BF024800BF00BF70BDD1
:100A30000010024000127A00546D0008646D000836
:100A400000093D00F8B504460CB90120F8BD207836
:100A500000F00100002878D0F848406800F00C0051
:100A600004280CD0F548406800F00C00082811D18B
:100A7000F248406800F48030B0F5803F0AD1EF487A
:100A8000006800F4003000285FD0606800285CD166
:100A90000120DBE700BF6068B0F5803F06D1E74882
:100AA000006840F48030E549086028E0606858B983
:100AB000E248006820F48030E04908600846006899
:100AC00020F4802008601AE06068B0F5A02F0BD1F8
:100AD000DA48006840F48020D84908600846006879
:100AE00040F4803008600AE0D448006820F4803088
:100AF000D24908600846006820F48020086000BFE2
:100B0000606888B1FFF79CFD054606E0FFF798FD99
:100B1000401B642801D9032098E7C848006800F406
:100B200000300028F2D010E0FFF78AFD054606E00D
:100B3000FFF786FD401B642801D9032086E7BF48E4
:100B4000006800F400300028F2D1207800F00200A4
:100B5000022857D1B948406800F00C0050B1B7489E
:100B6000406800F00C00082818D1B448406800F430
:100B7000803098B9B148006800F0020020B12069C7
:100B8000012801D0012061E7AC48006820F0F8009E
:100B9000616940EAC100A949086033E02069E8B111
:100BA0000120A7490860FFF74BFD054606E0FFF767
:100BB00047FD401B022801D9032047E79F480068F2
:100BC00000F002000028F2D09C48006820F0F800F5
:100BD000616940EAC1009949086013E00020984922
:100BE0000860FFF72DFD054606E0FFF729FD401BD5
:100BF000022801D9032029E79048006800F002008C
:100C00000028F2D1207800F0080008282DD1A06932
:100C1000B8B101208B490860FFF712FD054606E0D8
:100C2000FFF70EFD401B022801D903200EE7834881
:100C3000406A00F002000028F2D0012000F0F6FA2D
:100C400013E000207F490860FFF7FAFC054606E044
:100C5000FFF7F6FC401B022801D90320F6E677488F
:100C6000406A00F002000028F2D1207800F0040071
:100C7000042873D100277148C06900F0805070B912
:100C800000BF6E48C06940F080506C49C86108469A
:100C9000C06900F08050009000BF00BF01276A4883
:100CA000006800F48070B0B96748006840F4807054
:100CB00065490860FFF7C4FC054606E0FFF7C0FC85
:100CC000401B642801D90320C0E65F48006800F497
:100CD00080700028F2D000BFE068012806D1574894
:100CE000006A40F001005549086227E0E06858B901
:100CF0005248006A20F00100504908620846006A24
:100D000020F00400086219E0E06805280BD14B4888
:100D1000006A40F00400494908620846006A40F051
:100D2000010008620AE04548006A20F001004349DA
:100D300008620846006A20F00400086200BFE0680C
:100D4000A0B1FFF77DFC054609E0FFF779FC401BE9
:100D500041F28831884202D9032077E622E0374801
:100D6000006A00F002000028EFD012E0FFF768FCF4
:100D7000054608E0FFF764FC401B41F288318842D9
:100D800001D9032062E62D48006A00F00200002825
:100D9000F0D1012F05D12948C06920F080502749A2
:100DA000C86100BFE069C8B32448406800F00C0087
:100DB000082860D0E069022848D100202049086650
:100DC000FFF73EFC054606E0FFF73AFC401B022811
:100DD00001D903203AE61948006800F000700028A5
:100DE000F2D1206AB0F5803F07D11448406820F462
:100DF0000030A168084311494860D4E9080108435C
:100E00000E49496821F4741108430C4948600120D7
:100E10000B490866FFF714FC054607E03DE0FFF7C5
:100E20000FFC401B022801D903200FE6034800688D
:100E300000F000700028F2D02FE000000010024007
:100E400000004242800442420070004000201449E9
:100E50000866FFF7F5FB054606E0FFF7F1FB401BD0
:100E6000022801D90320F1E50E48006800F0007067
:100E70000028F2D111E0E069012800D1E6E5094837
:100E8000466806F48031206A814204D106F470116C
:100E9000606A814201D00120D8E50020D6E500003B
:100EA000000042420010024070B504462546681E0C
:100EB000B0F1807F01D301200FE0681E4FF0E021E8
:100EC00048610F214FF0FF3000F00AFB00204FF087
:100ED000E021886107200861002070BD10B504463C
:100EE0000CB9012010BDA06900B100E000BF94F86A
:100EF000410028B9002084F84000204600F02AF87C
:100F0000242084F841002068C06820F40050216843
:100F1000C860204600F012FA2068006920F4904072
:100F2000216808612068406920F02A002168486132
:100F30002068C06840F400502168C86000206064E8
:100F4000202084F8410084F842000020606300BF44
:100F5000C8E7000010B586B0044600200290039058
:100F6000049005901E492068884236D100BF1D4874
:100F7000806940F480401B4988610846806900F41C
:100F80008040019000BF00BF00BF0846806940F06C
:100F9000040088610846806900F00400019000BFE9
:100FA00000BF48150290022003900320059002A97B
:100FB0000D48FFF7A7F94FF48060029000200390DE
:100FC000049002A90848FFF79DF900220521252079
:100FD000FFF7C2FB2520FFF7AFFB06B010BD0000F6
:100FE0000038014000100240000801402DE9F84F90
:100FF00004460E46174699464FF0000A94F8410001
:10100000202850D106B117B90120BDE8F88F002083
:101010006064212084F84100FFF712FB8246A78418
:10102000E784A068B0F5805F04D1206910B900257D
:10103000B04602E035464FF000081EE0534600225D
:1010400080212046CDF8009000F0F6F920B1202054
:1010500084F841000320D8E745B9B8F80000C0F390
:1010600008002168486008F1020803E02878216838
:1010700048606D1CE08C401EE084E08C0028DDD1CF
:101080005346002240212046CDF8009000F0D4F9CC
:1010900020B1202084F841000320B6E7202084F806
:1010A00041000020B1E70220AFE700BFFEE70000EB
:1010B00000B585B00020019002900390049000BF1D
:1010C0004648806940F010004449886108468069BC
:1010D00000F01000009000BF00BF00BF084680690C
:1010E00040F0200088610846806900F020000090F0
:1010F00000BF00BF00BF0846806940F0040088615F
:101100000846806900F00400009000BF00BF00BFE7
:101110000846806940F0080088610846806900F050
:101120000800009000BF00BF00224FF400512C487F
:10113000FFF780FA0022FC212A48FFF77BFA002201
:1011400041F2C3012848FFF775FA4FF400500190AF
:1011500001200290002003900220049001A9204861
:10116000FFF7D0F84FF4404001900020029001209A
:10117000039001A91A48FFF7C5F803200190002049
:1011800002900120039001A91648FFF7BBF8FC204C
:10119000019001200290002003900220049001A9F8
:1011A0001048FFF7AFF803200190012002900020C3
:1011B00003900220049001A90B48FFF7A3F84FF415
:1011C000865001900120029003900320049001A911
:1011D0000548FFF797F805B000BD00000010024079
:1011E0000010014000080140000C014010B50B4800
:1011F0000B4908604FF4E1304860002108488160E5
:10120000C16001610C21416100218161C161FFF771
:1012100065FE08B1FFF773F810BD0000003801400B
:10122000440B002000BFFEE700BFFEE708B50849F9
:101230000968C9084FF47A72B1FBF2F14143009199
:1012400000BF00BF00994A1E00920029F9D108BDD5
:101250004003002010B5FFF7F9F903F06DFE0128F7
:1012600001D003F089FA10BD00B58FB0282105A880
:10127000FEF7BDFF14216846FEF7B9FF0120059077
:1012800000040690002007900120099002200C9095
:10129000C1030D914FF4E0110E9105A8FFF7D2FBA9
:1012A00008B1FFF72CF80F200090022001900020D9
:1012B00002904FF480600390002004900221684661
:1012C000FFF79CFA08B1FFF71AF80FB000BD70479E
:1012D00000BF00BF02680C3252E8002F22F4907168
:1012E00002680C3242E80013002BF3D100BF00BFAC
:1012F00000BF0268143252E8002F22F00101026898
:10130000143242E80013002BF3D100BF016B012916
:101310000ED100BF00BF02680C3252E8002F22F04D
:10132000100102680C3242E80013002BF3D100BF19
:10133000202180F8421000210163704770B50446F7
:101340002168096921F44051E26811432268116162
:101350002269A1681143626941EA02052168C968EE
:1013600041F20C62914329432268D16021684969A6
:1013700021F44071A2691143226851612D4A21680C
:10138000914202D1FFF716FB01E0FFF703FB00EBF0
:10139000C00101EB001162689200B1FBF2F100EBB9
:1013A000C00202EB001263689B00B2FBF3F26423FD
:1013B000B2FBF3F202EBC20303EB0212A1EB8201D8
:1013C000322202EB01116422B1FBF2F101F0F001D3
:1013D00000EBC00202EB001263689B00B2FBF3F269
:1013E0006423B2FBF3F201EB021200EBC00101EB4C
:1013F000001163689B00B1FBF3F100EBC00303EB4A
:1014000000136668B600B3FBF6F36426B3FBF6F38D
:1014100003EBC30606EB0313A1EB8301322303EBBB
:1014200001116423B1FBF3F101F00F0111442268B3
:10143000916070BD003801402DE9F84304460D4627
:1014400017469846089E31E0701C70B3FFF7F8F815
:10145000A0EB0800B04200D816B90320BDE8F8831D
:101460002068C06800F00400F8B1802D1ED0402D27
:101470001CD020680068C0F3C000B0B100BF0020DD
:10148000009020680068009020684068009000BFCD
:1014900000BF2046FFF71CFF0820606400BF00204B
:1014A00084F8400000BF0120D8E7FFE7206800680B
:1014B0002840A84201D1012000E00020B842C3D05A
:1014C0000020CBE710B502F091FF10BD00BFFEE792
:1014D00002480068C0F30220704700000CED00E0F5
:1014E00010B5002804DB0A07130E054A135406E062
:1014F0000A07140E034A00F00F031B1FD45410BD3B
:1015000000E400E018ED00E0EFF30580704702E032
:1015100008C8121F08C1002AFAD17047704700207E
:1015200001E001C1121F002AFBD17047014601EB07
:101530004100024A02EB800008307047E4050020B9
:10154000014601EB4100024A02EBC000083070473F
:10155000F0050020014601EB4100024A02EBC00009
:101560000C307047DC060020014601EB4100024AC6
:1015700002EBC00070470000DC0600200048704706
:101580004407002070B505460C460DB1042C01DB64
:10159000012070BD2146284601F0F2F8002004EB3E
:1015A00084010B4A02EB81010873002104EB8400E3
:1015B00002EB8000417304EB840002EB8000817336
:1015C00004EB840002EB800001820020E1E70000D0
:1015D0008805002070B50446204601F071FE04EB3A
:1015E0008400064901EB8000857B002104EB840028
:1015F000024A02EB80008173284670BD88050020F6
:1016000070B504460D462946204601F0C5F8002075
:1016100070BD00002DE9F04186B007460D464FF041
:101620000008142101A8FEF7E2FD002635A000689D
:10163000009000BF69463846FEF7F2FD01A941F867
:1016400026000DE001A850F8260000B909E0701C42
:10165000C6B269460020FEF7E3FD01A941F8260065
:10166000F0E700BF00242FE005EB4500264951F8C4
:10167000200004EB840100EB8100017BB01E81425D
:1016800000D01FE005EB45021F4B53F8222004EB6E
:10169000840352F823100198FEF7B4FD00B111E065
:1016A00005EB4502184B53F8222004EB840302EBB0
:1016B000830251680298FEF7A5FD00B102E04FF0E9
:1016C000010809E0601CC4B205EB45000E4901EBBE
:1016D00080004068A042C7D800BFB8F1010F0FD109
:1016E00005EB4500084A52F8200004EB840200EBA9
:1016F0008200016901A88847002006B0BDE8F0819A
:101700000120FAE720000000D805002070B504464B
:101710000D462946204601F07FF8002070BD70B5C7
:1017200004460D462946204601F024F9002070BDEC
:1017300070B504460D46D4E90001884201D2A06884
:1017400008B9012070BD2946204601F0ABFA2846B1
:1017500001F08AFA0020F5E730B5034601EB4100BD
:101760002D4C04EBC000007D08B9032030BD0022E1
:1017700008E001EB4100284C04EBC0000069805CEC
:101780009854521C01EB4100234C04EBC0008068CC
:101790009042EED801EB410004EBC00000698418D0
:1017A00001EB41001C4D05EBC000046101EB410061
:1017B0002C4604EBC000006901EB410405EBC404B6
:1017C0006468A04209D901EB41002C4654F830402E
:1017D00001EB410005EBC000046101EB41000E4C40
:1017E00004EBC000C46801EB41000B4D05EBC000E9
:1017F0000069844206D1002401EB410005EBC000E2
:10180000047506E0022401EB4100034D05EBC00026
:1018100004750020AAE70000DC06002030B503466E
:1018200001EB41002D4C04EBC000007D012801D1EB
:10183000022030BD002208E0985C01EB4104274DF6
:1018400005EBC404E468A054521C01EB4100234C96
:1018500004EBC00080689042EED801EB410004EB3D
:10186000C000C068104401EB41041C4D05EBC404EA
:10187000E06001EB41002C4604EBC000C06801EBC6
:10188000410405EBC4046468A04209D901EB41009E
:101890002C4654F8300001EB410405EBC404E06031
:1018A00001EB41000D4C04EBC000C46801EB4100AA
:1018B0000A4D05EBC0000069844206D1012401EB0A
:1018C000410005EBC000047506E0022401EB410075
:1018D000024D05EBC00004750020AAE7DC060020DD
:1018E000FEF7C0FEFFF7C0FCFFF7E2FBFFF77EFC50
:1018F00000F07CF81D4A00211D4800F0BDF81D498C
:1019000008601D4A00211D4800F0B6F81C49086017
:101910001C4A00211C4800F0AFF81C4908601C4A12
:1019200000211C4800F0A8F81B4908601B4A002150
:101930001B4800F0A1F81B4908601B4A00211B4806
:1019400000F09AF81A4908601A4A00211A4800F073
:1019500093F81A4908601A4A00211A4800F08CF8D6
:101960001949086000F058F800BFFEE7346C000821
:10197000353D000814030020586C00088D3C000819
:10198000180300207C6C00080D3F00081C03002099
:10199000A06C00087D32000820030020C46C000801
:1019A000E937000824030020E86C000865450008BA
:1019B000280300200C6D0008114500082C030020AE
:1019C000306D0008254400083003002070B505463E
:1019D000FFF79AFD10B16FF0050404E0002415B183
:1019E000284602F0DBFB204670BD000010B5FFF773
:1019F0008BFD10B16FF0050409E00648006820B9BE
:101A0000012004490860002401E04FF0FF34204623
:101A100010BD00009403002070B5FFF775FD10B1F4
:101A20006FF005041FE011480068012819D100BFBC
:101A3000801F0021002804DB0A07130E0C4A1354F0
:101A400006E00A07150E0B4A00F00F031B1FD554C2
:101A500000BF00BF02200549086002F01BFC002403
:101A600001E04FF0FF34204670BD000094030020D9
:101A700000E400E018ED00E02DE9FF4780468946CC
:101A8000144600200390FFF73FFD00284ED1B8F127
:101A9000000F4BD0402618258246471E44B32068CD
:101AA00008B1D4F800A0A06900B1A5692DB1382D06
:101AB00003D8207900F0010018B1002004B0BDE87F
:101AC000F087606908B160698608A06840B1E06885
:101AD0005C2805D3206918B1606908B1012708E0C6
:101AE000A06830B9E06820B9206910B9002700E08B
:101AF0000027012F0CD12169A0684B463246CDE961
:101B0000005102905146404603F0B8F903900DE0B1
:101B100067B903A8B2B24B465146CDE900504046E2
:101B200003F07AF9012801D0002003900398C5E75B
:101B30002DE9F04105460E4616480768164800682C
:101B4000001D01F02AFB681C38B936B11248016843
:101B5000091D124802F0E2F81AE07C190E480068EC
:101B60004460BC4207D20C480168091D0C4800685B
:101B700002F0BAF80CE008480168091D094800683D
:101B800002F0B2F808480068844201D206480460B6
:101B9000BDE8F08158030020440300207C100020A1
:101BA0004C030020480300207403002010B50446B5
:101BB00002F0CEF924480068401C234908602348FD
:101BC000006840B9214804600846006801280DD12A
:101BD00000F0FCF90AE01E48006838B91B480068AC
:101BE000C06AE16A884201D8184804601948006850
:101BF000401C184908600846006860641649E06A9D
:101C00000968884202D91449E06A0860E16A01EB78
:101C10008101124A02EB8100211D02F07FF802F0DF
:101C2000C1F90B48006868B108480068C06AE16AF9
:101C3000884207D24FF0805009490860BFF34F8FA8
:101C4000BFF36F8F10BD0000540300204403002039
:101C500060030020700300205C030020CC0B0020F8
:101C600004ED00E008B502F073F912480068E8B925
:101C7000114802F029F8114802F026F80E481049E0
:101C800008600E480F49086000200F4B0F4A1021D2
:101C900000900A2002F0B7FD064908600846006877
:101CA00020B10BA10348006802F03CFA02F07AF977
:101CB00008BD00008803002090100020A410002020
:101CC0008003002084030020B810002008110020A9
:101CD000546D72510000000010B516E002F038F9A2
:101CE0000C48C068C468201D01F057FA0A48006813
:101CF000401E0949086009480068401E07490860FD
:101D000002F050F9204600F05FF80448006800280F
:101D1000E4D110BD681000205403002050030020BF
:101D200070B504460D46206C70B1216CE06801442A
:101D3000E160D4E90210884201D32168E1602846BD
:101D4000226CE168FEF73AFA70BD2DE9F0410446D5
:101D50000F4615464FF00008A66B206C48B9206866
:101D600000282CD1A06803F09FF980460020A060D5
:101D700025E07DB93946226C6068FEF71FFA216CB8
:101D8000606808446060D4E90101884217D3206884
:101D9000606014E03946226CE068FEF70FFA216CAF
:101DA000E068411AE1602168E068884203D2216C52
:101DB000A068411AE160022D01D106B1761E701CA7
:101DC000A0634046BDE8F08110B5044694F8590080
:101DD00030B9206B02F004F9204602F001F91AE054
:101DE00094F85900012803D1204602F0F9F812E0D6
:101DF00094F85900022801D1012000E0002050B9D8
:101E000000BF502080F31188BFF34F8FBFF36F8F57
:101E100000BF00BFFEE710BD0146084A1268126805
:101E20000AB9012200E000220A600A6822B9034AC6
:101E30001268D268106800E000207047800300201C
:101E400030B54FF48053174800F007042CB1C01D83
:101E500020F00700134C041B1B1B0246124C22608F
:101E60000024114D6C60D018083820F007000F4C8A
:101E7000206000240D4D2D686C600C4D2D682C6089
:101E80001146441A4C60094C24680C60084D4C689B
:101E90002C60084D4C682C604FF00044064D2C60BF
:101EA00030BD00006015002098030020A003002032
:101EB000A8030020A4030020B403002000BFFFF704
:101EC0000BFF064800680128F9D94FF080500449FB
:101ED0000860BFF34F8FBFF36F8FF0E7CC0B00208C
:101EE00004ED00E02DE9F04106460D461746984600
:101EF000069C0DB9246000E02760E663256401219B
:101F0000204602F0F1FC84F84C80BDE8F0812DE918
:101F1000F05F82460E4690469B460A9F0C9C4FEA15
:101F20008801A522206BFEF75BF9A8F10100216B67
:101F300001EB800929F0070909F0070008B9012021
:101F400000E0002050B900BF502080F31188BFF39B
:101F50004F8FBFF36F8F00BF00BFFEE786B1002534
:101F600007E0715D04F134004155705D00B902E095
:101F70006D1C102DF5D300BF00214320015502E058
:101F8000002084F83400382F00D33727E762E76455
:101F900000202065201D01F0A4FE04F1180001F0CE
:101FA000A0FE2461C7F13800A06164620020606572
:101FB00084F858005A465146484600F07DFB2060A0
:101FC0000B9808B10B980460BDE8F09F10B5002491
:101FD00007E004EB84010F4A02EB810001F074FE7C
:101FE000641C382CF5D30C4801F06EFE0B4801F050
:101FF0006BFE0B4801F068FE0A4801F065FE0A48D6
:1020000001F062FE04480949086004480849086074
:1020100010BD0000CC0B00202C1000204010002030
:1020200054100020681000207C100020480300207D
:102030004C03002010B50146164800E00068036814
:102040008B42FBD30246436813448B4204D143685E
:102050004C682344436001460A464B6813440468B5
:10206000A34211D10C4C03682468A34208D04B68EA
:102070000468646823444B6003681B680B6005E0D8
:10208000054B1B680B6001E003680B60884200D0C1
:10209000016010BD98030020A00300202DE9F0414D
:1020A00004460D4616461F464FF000086560246141
:1020B000B5420CD8F01BA169884202D34FF0010849
:1020C00011E0211D0948006801F00EFE0BE0BE4240
:1020D00004D2BD4202D34FF0010804E0211D0448A0
:1020E000006801F001FE4046BDE8F0818403002055
:1020F0008003002070B5054601F02AFFA86B08B9DF
:10210000012400E0002401F04DFF204670BD70B5B1
:10211000054601F01DFFA86BE96B884201D101243F
:1021200000E0002401F03EFF204670BDF8B50546F2
:102130000F461A480068C068C468201D01F02DF8D9
:1021400094F8280000F00400E8B1A06941192B467A
:102150003A462046FFF7A2FFD8B1002003462A46A0
:1021600001460090204603F0FBF8064656B900BF32
:10217000502080F31188BFF34F8FBFF36F8F00BFE4
:1021800000BFFEE705E094F8280020F0010084F885
:1021900028002046216A8847F8BD000080030020FF
:1021A000F0B587B0A0E00398002811DA04AE56B964
:1021B00000BF502080F31188BFF34F8FBFF36F8FA4
:1021C00000BF00BFFEE7D6E90020B168904700BF1E
:1021D00003980028E6DB059C606908B9012000E04F
:1021E000002010B9201D00F0D8FF02A800F0DEF892
:1021F000054603980A2875D2DFE800F0090507397B
:10220000416306083A4200BF00BF00BF00BF94F818
:10221000280040F0010084F828000498A269811881
:1022200003462A462046FFF739FFF8B12046216AC7
:10223000884794F8280000F00400B8B1002000900E
:102240000498A169421800231946204603F088F833
:10225000074657B900BF502080F31188BFF34F8F56
:10226000BFF36F8F00BF00BFFEE700BF3BE000BFC2
:1022700094F8280020F0010084F8280033E000BF23
:1022800094F8280040F0010084F828000498A06128
:10229000A06908B1012000E0002050B900BF502023
:1022A00080F31188BFF34F8FBFF36F8F00BF00BF64
:1022B000FEE7A06941192B462A462046FFF7EEFEAD
:1022C00011E094F8280000F0020018B9204601F04F
:1022D00087FE05E094F8280020F0010084F828002B
:1022E00001E0FFE700BF00BF002203A90448006827
:1022F00002F098FC00287FF456AF07B0F0BD000054
:1023000088030020F8B505460C4602F01FF8684621
:1023100000F04CF80646009820BB44B9B54206D8F8
:1023200002F060FF31462846FFF700FF1CE03CB199
:102330000E480068006808B9012000E0002004464B
:10234000A91B22460A48006801F002FF02F04AFF7A
:1023500050B94FF0805007490860BFF34F8FBFF36B
:102360006F8F01E002F03EFFF8BD00008403002003
:102370008803002004ED00E00A490968096809B9EA
:10238000012100E0002121B14FF0FF31064A116028
:1023900006E004490968C968C868034A41681160D1
:1023A00070470000480300207403002070B5044605
:1023B00002F0D2FD054607480068854204D200F0CD
:1023C0000BF80120206001E000202060014805603A
:1023D000284670BD900300202DE9F84334E02548DD
:1023E0000068C068056823480068C068C468201D8C
:1023F00000F0D3FE2046216A884794F8280000F0B8
:10240000040008B3A0694619AE4207D9666024618A
:10241000211D1848006801F067FC15E00020034604
:102420002A4601460090204602F09AFF074657B917
:1024300000BF502080F31188BFF34F8FBFF36F8F21
:1024400000BF00BFFEE700BF0A480068006808B987
:10245000012000E000200028C1D00648D0F800800C
:1024600005480068034908600348C0F80080BDE8DB
:10247000F883000080030020840300200E480068D9
:10248000401C08B9012000E0002050B900BF5020D6
:1024900080F31188BFF34F8FBFF36F8F00BF00BF72
:1024A000FEE700BF502080F31188BFF34F8FBFF3CA
:1024B0006F8F00BF00BFFEE7B803002008B500BF64
:1024C0006846FFF7A9FC044620460099FFF71AFF6B
:1024D000FFF766FEF4E770B5044601F039FD94F9A4
:1024E000455010E0606A08B9012000E0002038B9CA
:1024F00004F1240002F02AFE18B101F089FE00E088
:1025000003E0681E45B2002DECDC00BFFF2084F81C
:10251000450001F047FD01F01BFD94F9445010E027
:10252000206908B9012000E0002048B904F110003A
:1025300002F00CFE08B101F06BFE681E45B200E02F
:1025400001E0002DECDC00BFFF2084F8440001F026
:1025500029FD70BD004870473807002000487047CB
:102560002C070020004870470C0700202DE9F0419F
:1025700004464FF0000801F0E9FE4948006808B938
:10258000FFF75EFC474800682040002870D1D4B1B6
:10259000083404F00700B0B104F00700C0F10800EF
:1025A000044404F0070008B9012000E0002050B9FD
:1025B00000BF502080F31188BFF34F8FBFF36F8FA0
:1025C00000BF00BFFEE7002C52D0374800688442AD
:1025D0004ED8364E3046056801E02E462D686868B4
:1025E000A04202D228680028F7D12D480068854211
:1025F0003ED0306800F10808286830606868001B29
:10260000102819D92F1907F0070008B9012000E098
:10261000002050B900BF502080F31188BFF34F8FC6
:10262000BFF36F8F00BF00BFFEE76868001B7860D4
:102630006C603846FFF7FEFC1B4968680968081A99
:10264000194908600846006819490968884203D298
:102650001548006816490860124968680968084307
:1026600068600020286013480068401C1149086019
:1026700002F0B8FD08F0070008B9012000E00020D2
:1026800050B900BF502080F31188BFF34F8FBFF3C4
:102690006F8F00BF00BFFEE74046BDE8F08100003D
:1026A000A0030020B4030020A4030020980300200E
:1026B000A8030020AC030020001F4FF080730360CC
:1026C000001F21F001030360001F034B0360143857
:1026D00002602038704700007D2400082DE9F84F83
:1026E00082460C4616469846A6EB080000EBD071D1
:1026F000491009B200914FF000097200514620467E
:10270000FDF75CFD002516E0681C87B20FE034F988
:10271000150034F91710884207DA34F915B034F887
:10272000170024F8150024F817B0781C87B2B742B8
:10273000EDDB681C85B2B542E6DB002506E00098BB
:10274000284434F910008144681C85B24545F6DB05
:1027500099FBF8F90FFA89F0BDE8F88F10B5044637
:1027600004EB8402054B03EB8202918804EB8402A4
:1027700053F82200FDF756FF10BD00008805002029
:1027800030B501EB8102034B03EB820290E8380085
:1027900038C230BD8805002010B501EB4102034B63
:1027A00003EB8202D0E9003418C210BDD805002026
:1027B00008B50021009102E00099491C00910099A0
:1027C0008142F9D308BD000008B500200090002325
:1027D0000A2269460248006802F0D2F808BD0000EB
:1027E000080000202DE9F04105462F68012600244D
:1027F00006E007EA060000B104E07600601CC4B2FF
:10280000042CF6DB00BF032C02D1FFF7DDFF00E054
:1028100000BF00BFBDE8F08110B501EB4102034BE2
:1028200003EB8202D0E9003418C210BDE405002099
:1028300038B5044600200090207006490873064908
:10284000087300230A2269460448006802F098F8D9
:1028500038BD0000240200203402002008000020BF
:102860000278521E02700278092A01DB08220270E7
:1028700002783032044B1A7000220A70034B1A732C
:10288000034B1A7370470000F80100202402002057
:102890003402002070B505460C46207801280BD183
:1028A0000220207000200A4908730120094908739A
:1028B000287800F0EDFF09E001202070044908733A
:1028C000002004490873287800F0FEFF70BD000066
:1028D00024020020340200200278521C0270027888
:1028E000092A01DB0022027002783032044B1A7090
:1028F00000220A70034B1A73034B1A7370470000CF
:10290000F801002024020020340200202DE9F041CB
:1029100005462F680126002406E007EA060000B1FC
:1029200004E07600601CC4B2042CF6DB00BF34B1B6
:10293000012C09D0022C0CD0032C13D10EE00B4932
:102940000B48FFF7C9FF0EE008490948FFF788FF69
:1029500009E006490648FFF79DFF04E00348FFF73A
:1029600067FF00E000BF00BFBDE8F08175020020F6
:102970007402002010B501EB4102034B03EBC202CD
:10298000D0E9003418C210BDF005002008B50B488E
:102990008089401C00900948808910B1012809D124
:1029A00000E000BF00230A2269460548006801F0E4
:1029B000E7FF00E000BF00BF08BD0000D00100201D
:1029C000080000202DE9F04105462F68012600246B
:1029D00006E007EA060000B104E07600601CC4B21D
:1029E000042CF6DB00BF24B1012C06D0022C0BD145
:1029F00007E0074801F0FCFD07E0054801F011FE83
:102A000003E0FFF7C3FF00E000BF00BFBDE8F081B7
:102A1000D001002070B505460C4600264AE004EBC4
:102A20008402264B03EB8202918804EB840253F864
:102A300022000022FDF7FEFD05F0800070B104EBDE
:102A400084021E4B03EB8202918904EB840203EBA8
:102A5000820290680122FDF7EDFD0DE004EB840297
:102A6000164B03EB8202918904EB840203EB820292
:102A700090680022FDF7DEFD04EB84020F4B03EBB0
:102A80008202918804EB840253F822000122FDF7B0
:102A9000D1FD04EB8402094B03EB8202918804EB25
:102AA000840253F822000022FDF7C4FD6806050EDB
:102AB000701CC6B2082EB2DB70BD0000C806002034
:102AC00010B5044604EB84021A4B03EB8202918991
:102AD00004EB840203EB820290680122FDF7AAFD59
:102AE00004EB8402134B03EB8202918804EB840213
:102AF00053F822000122FDF79DFD04EB84020D4BEB
:102B000003EB8202918904EB840203EB820290685A
:102B10000022FDF78FFD04EB8402064B03EB8202DB
:102B2000918804EB840253F822000022FDF782FD15
:102B300010BD0000C806002010B5044604EB840256
:102B4000134B03EB8202918804EB840253F82200BA
:102B50000122FDF76FFD04EB84020D4B03EB8202B3
:102B6000918904EB840203EB820290680022FDF756
:102B700061FD04EB8402064B03EB8202918904EBB6
:102B8000840203EB820290680122FDF753FD10BD21
:102B9000C806002010B5044604EB84020C4B03EB7E
:102BA0008202918804EB840253F822000122FDF78F
:102BB00041FD04EB8402064B03EB8202918804EB97
:102BC000840253F822000022FDF734FD10BD0000FE
:102BD000C806002070B501EB8102034B03EB8202B3
:102BE00090E8780078C270BDC806002070B5054630
:102BF0000C462046FFF764FF21467820FFF70AFFC6
:102C00002046FFF7C7FF21460020FFF703FF2046BD
:102C1000FFF7C0FF21462846FFF7FCFE2046FFF7DE
:102C2000B9FF2046FFF788FF70BD70B505460C461A
:102C30002046FFF745FF21467820FFF7EBFE2046B0
:102C4000FFF7A8FF21464020FFF7E4FE2046FFF7EC
:102C5000A1FF21462846FFF7DDFE2046FFF79AFF39
:102C60002046FFF769FF70BD002200EB40010C4BCE
:102C700003EBC1010A7500EB40011A4652F83120FE
:102C800000EB400103EBC1010A6100EB40011A4671
:102C900052F8311000EB400203EBC202D1607047E2
:102CA000DC06002030B501EB4102034B03EBC2020E
:102CB00090E8380038C230BDDC060020F0B5CA10FC
:102CC00001F0070301259D40ACB202EBC005044EA4
:102CD000755DA54302EBC006014FBD55F0BD000078
:102CE00044070020F0B5CA1001F0070301259D40FC
:102CF000ACB202EBC005044E755D254302EBC00685
:102D0000014FBD55F0BD0000440700202DE9FF4FE5
:102D100083B081460E461C46DDF840A004F0070053
:102D200008B1012000E0002000EBE40061104843FE
:102D3000C0B2019005982038C7B2B046002558E0CF
:102D40000C2C07D107EB47002C4901EB8000405DBC
:102D5000029014E0102C05D1294800EB0710405DCB
:102D600002900CE0182C07D107EBC700254901EBB6
:102D70008000405D029002E007B0BDE8F08F4FF0A8
:102D8000000B30E0029800F0800060B1BAF1000F53
:102D900004D131464846FFF7A5FF10E031464846CA
:102DA000FFF78CFF0BE0BAF1000F04D13146484623
:102DB000FFF784FF03E031464846FFF793FF029890
:102DC0004006000E0290701C86B2A6EB0800A042DE
:102DD00005D1464609F101001FFA80F906E00BF122
:102DE00001001FFA80FBBBF1080FCBDB00BF681CA2
:102DF00085B201988542A3DB00BFBDE7745400088B
:102E0000E8580008D85E00082DE9F84305460F464B
:102E100014461E46DDF8208012E0CDF800802278AE
:102E2000334639462846FFF771FF05EB660085B249
:102E3000C6F18000A84202DA0025B81C87B2641CE3
:102E40002078202802DB20787E28E6DDBDE8F883A4
:102E500070B505462C6803E0204600F04EF8A468E3
:102E6000002CF9D170BD2DE9F84307460E467C6869
:102E700000251EE00096B4F80CC0AC4494F80B801A
:102E8000ACEB080CD4F8108008EBCC0CDCF8042078
:102E900094F808C094F80E8005FB08CCB4F80280C2
:102EA000C4441FFA8CF1A37B2088FFF7ADFF681C98
:102EB00085B2607AA842DDDC009694F808C094F8E8
:102EC0000B8094F80E9008FB09CCB4F80280C4443F
:102ED0001FFA8CF14B4620886268FFF795FFBDE82A
:102EE000F883F8B505460E466C680096237961882C
:102EF0002088A268FFF788FFF8BD10B50446207847
:102F0000012802D002280CD105E06068017B204630
:102F1000FFF7E7FF06E06068017D2046FFF7A3FFAB
:102F200000E000BF00BF10BD2DE9F04104460026BF
:102F30000027204600F014FC00BF04EB44021C4BA9
:102F400003EB8202928891B204EB440253F8220010
:102F5000FDF768FB0546701CC6B2642E02DBFF203D
:102F6000BDE8F0810120FFF723FC002DE5D000BF74
:102F700004EB44020E4B03EB8202928891B204EB05
:102F8000440253F82200FDF74DFB0546781CC7B2FA
:102F9000642F01DBFF20E3E70120FFF709FC012D8F
:102FA000E6D0BE4201DD0020DAE70120D8E70000CC
:102FB000E40500202DE9FC41054600200090019029
:102FC000284600F0FFFB284600F060F8074617B1DE
:102FD0003846BDE8FC8100241FE04FF0000817E0F0
:102FE0002846FFF7A1FF0646FF2E01D10120F0E79A
:102FF0001DF804004006000E0DF804001DF8040042
:103000003044C0B20DF8040008F1010000F0FF08E0
:10301000B8F1080FE4DB601CC4B2052CDDDB9DF8C1
:1030200000009DF8011008449DF8021008449DF826
:10303000031008449DF80410884201D00120C8E71D
:103040009DF8000040B205EB45010F4A02EB8101FB
:1030500008729DF8010041B205EB450002EB8000CB
:1030600041729DF8020041B205EB450002EB800081
:1030700081729DF8030041B205EB450002EB800030
:10308000C1720020A5E70000E405002070B50446E9
:10309000204600F065FB002500BF04EB4402274BEF
:1030A00003EB8202928891B204EB440253F82200AF
:1030B000FDF7B8FA0646681CC5B2642D01DBFF2097
:1030C00070BD0120FFF774FB012EE6D0002500BF84
:1030D00004EB4402194B03EB8202928891B204EB99
:1030E000440253F82200FDF79DFA0646681CC5B25B
:1030F000642D01DBFF20E3E70120FFF759FB002EE1
:10310000E6D0002500BF04EB44020C4B03EB820227
:10311000928891B204EB440253F82200FDF782FA40
:103120000646681CC5B2642D01DBFF20C8E70120FC
:10313000FFF73EFB012EE6D00020C1E7E4050020AA
:103140002DE9F04105460E4600274FF00108202EDC
:1031500000DD20262C4609E07F00E0B2FEF73AFAB7
:10316000012801D147EA0807601C84B2A819A042CF
:10317000F2DC3846BDE8F0810146002006E000EBB5
:10318000800250000A78303A1044491C0A78302AEC
:1031900002DB0A78392AF2DD704701460A69D1E973
:1031A00001309860D1E9010358605068884201D12C
:1031B00088685060002008611068401E1060106828
:1031C00070470000034B0360034B0B604023136008
:1031D00070470000A811002004120020034B036078
:1031E000034B0B6080231360704700000413002022
:1031F000601300200EB500208DF806001D480090D9
:103200000220ADF804000120ADF808000321684653
:10321000FEF7B8F900208DF806001648009001204E
:10322000ADF804000220ADF8080002216846FEF760
:10323000A9F900208DF806000F4800904FF40040D7
:10324000ADF804000320ADF8080001216846FEF740
:1032500099F900208DF80600074800904FF480404F
:10326000ADF804000420ADF8080000216846FEF720
:1032700089F90EBD000801400010014008B5002288
:103280000421032001F092FA0C49086014E00520A3
:1032900000F084FF002269460848006801F0C2FC83
:1032A00050B10098844207D000996140009A01EA29
:1032B000020000F053F8009CE9E700000000002045
:1032C0002DE9F041054605EB85001A4901EB800028
:1032D00000F10C0405EB850001EB80072846FFF7A1
:1032E0003DFA8046B879404501D1012000E0002038
:1032F00006462078B0420CD0A088401CA080A08850
:103300003989884207DB2078607026700020A08011
:1033100001E00020A0800020A07020786178884221
:1033200005D02078012800D100E00220A070BDE87F
:10333000F08100008805002010B504210020FFF76F
:10334000FFFE04490860002302220348006801F0E0
:1033500017FB10BD100000200000002010B504462F
:103360000248046000F07EFD10BD00001400002043
:1033700070B505460DB9002400E0FF2422464FF445
:1033800080610248FCF72CFF70BD0000440700205C
:1033900038B5044613480090A068FFF7EDFE1149C8
:1033A000087001210F48C1804FF6FF700D498880D9
:1033B0004FF0FF310B488160E068FFF7DDFE0949FF
:1033C000C860E068FFF7D8FE0649086100230522BF
:1033D00069460548006801F0D3FA04A0FCF782FFB3
:1033E00038BD0000C8030020040000204F4B0D0A28
:1033F0000000000038B5044613480090A068FFF7AD
:10340000BBFE1149087001210F48C1804FF6FF70C3
:103410000D4988804FF0FF310B488160E068FFF76D
:10342000ABFE0949C8602069FFF7A6FE064908619E
:103430000023052269460548006801F0A1FA04A0AE
:10344000FCF750FF38BD0000C80300200400002036
:103450004F4B0D0A0000000038B504460E4800909E
:10346000A068FFF789FE0C49087000210A48C18056
:10347000002009498880411E07488160C1600161C0
:103480000023052269460548006801F079FA04A086
:10349000FCF728FF38BD0000C8030020040000200E
:1034A0004F4B0D0A0000000038B504460E4800904E
:1034B000A068FFF761FE0C49087000210A48C1802E
:1034C000012009498880811E07488160C16001612F
:1034D0000023052269460548006801F051FA04A05E
:1034E000FCF700FF38BD0000C803002004000020E6
:1034F0004F4B0D0A0000000038B5044613480090F9
:10350000A068FFF739FE114908700878FEF718F82F
:10351000054600210D48C180288818B100200B49BC
:10352000888002E00120094988804FF0FF31074878
:103530008160C1600161002305226946044800687A
:1035400001F01EFA03A0FCF7CDFE38BDC803002031
:10355000040000204F4B0D0A000000001CB5044879
:1035600000900520019000216846FEF749F81CBD37
:103570001054000810B5044600212046FEF74AF812
:1035800010BD000010B50A490A4800F0F2FF0A49D0
:10359000084800F0EEFF0949064800F0EAFF084934
:1035A000044800F0E6FF07480249886010BD0000AB
:1035B000E402002038070020F0020020FC02002076
:1035C00008030020E52700080A2190FBF1F201FB27
:1035D00012013031144A11710A2190FBF1F10A22D3
:1035E00091FBF2F302FB131130310F4A9170642109
:1035F00090FBF1F159B1642190FBF1F10A2291FBAA
:10360000F2F302FB13113031074A517002E020211E
:10361000054A5170002803DA2D21034A117002E097
:103620002021014A117070479A0200200A2190FB64
:10363000F1F201FB12013031144A11710A2190FBA1
:10364000F1F10A2291FBF2F302FB131130310F4A20
:103650009170642190FBF1F159B1642190FBF1F17B
:103660000A2291FBF2F302FB13113031074A517029
:1036700002E02021054A5170002803DA2D21034A77
:10368000117002E02021014A11707047850200206C
:103690001CB5044800908014019000216846FEF794
:1036A00035F81CBD000C014010B50020FFF782FC6E
:1036B0000020FDF73BFF90F901400020FDF736FFA9
:1036C00090F9000000EB800004EB40012248234AFF
:1036D000127820F812100020FDF728FF90F903401F
:1036E0000020FDF723FF90F9020000EB800004EBBF
:1036F000400119485038194A127820F812100C234A
:10370000142200F178015030FEF7E8FF12495439D5
:1037100048800C2314222C31A1F12800FEF7DEFF93
:103720000D49543908800D480078401C0B49087039
:1037300008460078142801DB002008700649543937
:10374000B1F90000FFF772FF03495439B1F90200E3
:10375000FFF73AFF10BD00003004002018000020E1
:103760001FB5044604EB4400094901EB80004068A2
:1037700000900020019002900120039004EB44018E
:10378000034A52F821006946FCF7BCFD1FBD00004A
:10379000E40500201FB5044604EB4400084901EB92
:1037A000800040680090012001900290039004EB9B
:1037B0004401034A52F821006946FCF7A3FD1FBDEE
:1037C000E405002010B504462046FFF7E3FF20463D
:1037D00000F028F8142000F0E1FC204600F00EF87C
:1037E0000720FEF7E5FF10BDFFF752FF04E032208F
:1037F000FEF7ECF8FFF758FFF9E7000010B50446B4
:1038000004EB4402064B03EB8202928891B204EB74
:10381000440253F822000122FCF70CFF10BD000007
:10382000E405002010B5044604EB4402064B03EB0C
:103830008202928891B204EB440253F822000022E3
:10384000FCF7F8FE10BD0000E405002010B50A49A1
:103850000A4800F08EFE0A49084800F08AFE09492D
:10386000064800F086FE0849044800F082FE07483A
:103870000249886010BD0000440200202C0700208F
:10388000500200205C020020680200200D29000880
:1038900038B504460A48009004700021C180002019
:1038A00007498880411E06488160C160016100238C
:1038B000022269460348006801F062F838BD000042
:1038C000180700200400002038B504460A4800907C
:1038D00004700021C180012007498880811E0648AC
:1038E0008160C160016100230222694603480068CB
:1038F00001F046F838BD0000180700200400002041
:1039000010B5044604EB4400284901EBC00040898F
:10391000E0B3012847D104EB440001EBC000C068CC
:10392000401C04EB4401214A02EBC101C86004EBD6
:103930004400114601EBC000C16804EB440002EBF7
:10394000C0000069814206D2012004EB440102EB71
:10395000C101088122E004EB4400144901EBC000DE
:10396000016904EB4400114A02EBC00040690144C4
:1039700004EB440002EBC000C068814207D900207C
:1039800004EB440102EBC101088107E007E00021DC
:1039900004EB4400054A02EBC000C16000BF2046B2
:1039A00000F016F900E000BF00BF10BDF0050020D8
:1039B00000B587B00120ADF80600ADF80400002086
:1039C00002904FF4FA7003900490002101A800F0D7
:1039D00023F900208DF81A00714805904014ADF8C5
:1039E0001800002105A8FDF79AFE0120ADF8060099
:1039F000ADF80400002002904FF47A700390049018
:103A0000082101A800F008F900208DF81A00654887
:103A100005900420ADF81800082105A8FDF77FFEE9
:103A20000120ADF80600ADF80400002002904FF42C
:103A30007A7003900490072101A800F0EDF80020AF
:103A40008DF81A00574805900820ADF81800072196
:103A500005A8FDF764FE0120ADF80600ADF80400EE
:103A6000002002904FF47A7003900490062101A880
:103A700000F0D2F800208DF81A004A480590102076
:103A8000ADF81800062105A8FDF749FE0120ADF8A4
:103A90000600ADF80400002002904FF47A70039005
:103AA0000490052101A800F0B7F800208DF81A0055
:103AB0003C4805902020ADF81800052105A8FDF729
:103AC0002EFE0120ADF80600ADF8040000200290A3
:103AD0004FF47A7003900490042101A800F09CF840
:103AE00000208DF81A002F4805904020ADF81800EE
:103AF000042105A8FDF713FE0120ADF80600ADF87E
:103B00000400002002904FF47A7003900490032187
:103B100001A800F081F800208DF81A0021480590D6
:103B20008020ADF81800032105A8FDF7F8FD01205D
:103B3000ADF80600ADF80400002002904FF47A7052
:103B400003900490022101A800F066F800208DF88F
:103B50001A00154805900120ADF81800022105A8AB
:103B6000FDF7DDFD0120ADF80600ADF804000020F2
:103B700002904FF47A7003900490012101A800F0A4
:103B80004BF800208DF81A00074805900220ADF888
:103B90001800012105A8FDF7C2FD07B000BD000017
:103BA0000010014000080140000C014010B5002445
:103BB00004E02046FFF7A4FE601CC4B2092CF8DB29
:103BC00010BD10B504462178201D00F025F810BD69
:103BD00070B5044604EB44000E4901EBC000807947
:103BE00004EB44010B4A02EBC1010989484008B9C2
:103BF000012000E00020054604EB4402054B03EBE6
:103C0000C202918804EB440253F832002A46FCF7C2
:103C100011FD70BDF005002010B502884FF6FF734E
:103C20009A4206D0028801EB4103174C04EBC30310
:103C30001A8142884FF6FF739A4206D0438801EBFF
:103C40004102114C04EBC20253814268521C32B152
:103C500001EB41020C4C04EBC2024368D360826862
:103C6000521C32B101EB4102074C04EBC2028368E3
:103C70001361C268521C32B101EB4102024C04EBE9
:103C8000C202C368536110BDF005002008B5FFF7FC
:103C90008FFE00220421032000F088FD09490860FE
:103CA0000EE0012000F07AFA00226946054800681B
:103CB00000F0B8FF10B10098FFF783FFFFF776FF21
:103CC000EFE700000400002000F1080141604FF020
:103CD000FF31816000F10801C160016100210160D4
:103CE000704700210161704710B502460B685C1CEB
:103CF0000CB9106907E002F1080000E04068446870
:103D000024689C42FAD944684C604C68A160886081
:103D100041600A611468641C146010BD42684A6006
:103D200093688B60936859609160086103685B1CBD
:103D300003607047FFF75EFA04E00A2000F02EFAF5
:103D4000FFF7FAFAF9E7000010B50449044800F05B
:103D500010FC04480249886010BD0000E801002002
:103D60000C070020C529000810B504462146AE20E6
:103D7000FEF73CFF21460020FEF738FF21461020C9
:103D8000FEF734FF21464020FEF730FF2146812018
:103D9000FEF72CFF2146CF20FEF728FF2146A12069
:103DA000FEF724FF2146C820FEF720FF2146A6206B
:103DB000FEF71CFF2146A820FEF718FF21463F20F2
:103DC000FEF714FF2146D320FEF710FF2146002006
:103DD000FEF70CFF2146D520FEF708FF2146802084
:103DE000FEF704FF2146D920FEF700FF2146F1200F
:103DF000FEF7FCFE2146DA20FEF7F8FE21461220EF
:103E0000FEF7F4FE2146DB20FEF7F0FE21464020BF
:103E1000FEF7ECFE21462020FEF7E8FE21460220B8
:103E2000FEF7E4FE21468D20FEF7E0FE2146142039
:103E3000FEF7DCFE2146A420FEF7D8FE2146A62090
:103E4000FEF7D4FE2146AF20FEF7D0FE10BD70B5C0
:103E500005460C4621462846FEF7BCFE2046FFF7E5
:103E600083FF70BD10B504462146024800F097FB61
:103E700010BD00001C0000201FB507480090402026
:103E8000ADF80400044802908020ADF80C00002139
:103E90006846FFF7DCFF1FBD000C014010B5054868
:103EA00000F0E4FBFDF76AFB0446002100F004F893
:103EB00010BD00001C0000202DE9F0410646884698
:103EC00000241FE004F1B001C8B24146FEF78EFEA7
:103ED00041460020FEF78AFE41461020FEF786FE8E
:103EE00000250BE0AF01F91707EB517104EBE1017D
:103EF000705C4146FEF799FE681CC5B2802DF1DB6F
:103F0000601CC4B2082CDDDBBDE8F08108B500F010
:103F100051FBFFF7B1FF00220421012000F046FC15
:103F20000A49086011E01E2000F038F900226946B5
:103F30000648006800F076FE28B1002000F029FB5A
:103F4000009800F08DFBFFF7A9FFECE708000020C8
:103F500000BF502080F31188BFF34F8FBFF36F8FE6
:103F600000BF0E480068401C0C4908600846006805
:103F7000012812D10A480068C0B208B9012000E047
:103F8000002050B900BF502080F31188BFF34F8F3D
:103F9000BFF36F8F00BF00BFFEE77047B80300207C
:103FA00004ED00E00D48006850B900BF502080F3D8
:103FB0001188BFF34F8FBFF36F8F00BF00BFFEE7C5
:103FC00006480068401E054908600846006820B998
:103FD000002080F3118800BF00BF7047B8030020A5
:103FE00070B506463546002E44D0083D2C46224981
:103FF00060680968084008B1012000E0002050B95D
:1040000000BF502080F31188BFF34F8FBFF36F8F35
:1040100000BF00BFFEE7206808B9012000E00020D3
:1040200050B900BF502080F31188BFF34F8FBFF30A
:104030006F8F00BF00BFFEE70F4960680968084046
:10404000C0B12068B0B90C496068096888436060F5
:1040500000F07CF90949606809680844074908606C
:104060002046FDF7E7FF06480068401C0449086049
:1040700001F0B8F870BD0000B4030020A4030020D4
:10408000B003002000204FF0E0210861886106485D
:1040900000684FF47A71B0FBF1F0401E4FF0E02160
:1040A00048610720086170474003002070B5FCF7A5
:1040B0006FF80446102C16D304F1E02090F8F0536A
:1040C00015480078854201DB012000E0002050B94E
:1040D00000BF502080F31188BFF34F8FBFF36F8F65
:1040E00000BF00BFFEE70D48006800F4E0600C4927
:1040F0000968884201D8012000E0002050B900BFC3
:10410000502080F31188BFF34F8FBFF36F8F00BF34
:1041100000BFFEE770BD0000BC0300200CED00E016
:10412000C0030020024600200BE0084B53F830305B
:1041300033B9064B43F8301003EBC0035A6002E07A
:10414000401C0828F1D300BF704700008C0B0020F2
:104150002DE9F04105460E4617462C46FFF7F8FEBE
:1041600094F94400401C10B9002084F8440094F9EC
:104170004500401C10B9002084F84500FFF712FFED
:10418000A06B28B93A46314604F1240000F062F8E9
:104190002046FEF7A0F9BDE8F081000070B50446A6
:1041A0000025D4B11248006808B9012000E00020C1
:1041B00050B900BF502080F31188BFF34F8FBFF379
:1041C0006F8F00BF00BFFEE700F0C0F8002120465F
:1041D000FDF7AEFC01F006F805463DB94FF0805002
:1041E00004490860BFF34F8FBFF36F8F70BD0000AD
:1041F0007C03002004ED00E00349096801600349E5
:1042000009684160704700006C03002058030020DB
:1042100001200149086070476803002070B504461A
:104220000D4654B900BF502080F31188BFF34F8F63
:10423000BFF36F8F00BF00BFFEE70548016818316C
:104240002046FFF751FD01212846FDF771FC70BDA6
:104250004403002070B505460E46144655B900BF0C
:10426000502080F31188BFF34F8FBFF36F8F00BFD3
:1042700000BFFEE70648016818312846FFF74EFDEB
:104280000CB14FF0FF3621463046FDF751FC70BDB2
:104290004403002010B586B000200590049003AAC6
:1042A00004A905A8FEF78EFF0022DDE904101346DD
:1042B000CDE9002102901EA11F48039A00F0DEFD07
:1042C0001E4908600846006808B1012400E0002487
:1042D000012C02D101F008F80446012C15D100BFD1
:1042E000502080F31188BFF34F8FBFF36F8F00BF53
:1042F0004FF0FF3012490860012012490860002089
:104300001149086000F0BCF910E0601C08B1012000
:1043100000E0002050B900BF502080F31188BFF3A7
:104320004F8FBFF36F8F00BF00BFFEE706B010BD19
:1043300049444C4500000000BD1E000878030020E1
:104340007403002060030020580300200248006826
:10435000401C0149086070477C0300201E4800682B
:1043600018B101201D49086034E000201B49086095
:104370001B4801680CE051B900BF502080F3118840
:10438000BFF34F8FBFF36F8F00BF00BFFEE7491E23
:1043900001EB8100134A52F8200008B9012000E027
:1043A00000200028E7D101EB81020E4B03EB8200D5
:1043B00042685268426000F108024368934202D1A9
:1043C0004268526842604268D268074B1A600448EB
:1043D000016000BF704700007C03002068030020DC
:1043E0005C030020CC0B00204403002010B50B48D8
:1043F000006800F0200020280ED10848001D006849
:104400000749087001210648FDF708FA03480068CB
:1044100020F020000149086010BD00000038014074
:104420002400002008B5FFF799F80CE00120FFF701
:10443000B5FE002269460448006800F0F3FB10B1A5
:104440000098FFF797F8F1E70C000020F8B501207D
:10445000FDF780F805460120FDF786F80646184866
:1044600000906C68074608E020780A2800D107E031
:10447000641C7068A04200D234682868A042F3D15E
:1044800000BF2868A04200D1F8BD322200210C48AC
:10449000FBF7A6FE04E001213846FDF75DF97F1C1D
:1044A0006868A042F7D101213846FDF755F900238D
:1044B0000A2269460348006800F062FA00BFE3E799
:1044C000540500200C0000200EB50E48009063300B
:1044D00001900120029000216846FDF729F90A4861
:1044E0000090633001900120029001216846FDF7A1
:1044F0001FF906480068C06840F0200003490968B9
:10450000C8600EBD8C040020F0040020440B002085
:1045100000220421022000F049F905490860FFF754
:10452000D3FF04E00120FFF739FEFFF78FFFF9E723
:104530000C00002038B50020FDF70CF8044609E017
:1045400000216846FDF708F90A230122694604485C
:10455000FCF74CFDD4E900108842F1D138BD0000D1
:10456000440B002004E00120FFF718FEFFF7E2FFF4
:10457000F9E742682AB941600160002243689A6005
:104580007047426891604160002243689A6000BFB2
:10459000F6E710B504462046FEF7EAFE10BD70B5FA
:1045A00004460D46D4E9000250F8220081682846EE
:1045B000884770BD10B5FDF7D5FF0B490860FFF7C0
:1045C000C3FBFDF7CBFF08494860FFF73FF9FDF754
:1045D000C1FF05498860FEF7D5FF0348034908601D
:1045E0000020486010BD0000800400201C00002056
:1045F000818941B9C17A31B9417A491EC172817A42
:10460000491E81817047C17A19B98189491E81810A
:10461000F8E78189491E8181C17A491EC17200BFB4
:10462000F0E78289817A491E8A4208D1C27A417AAA
:10463000491E8A4203D10021C17281817047C27A2A
:10464000417A491E8A4203D18189491C8181F5E75B
:104650008189491C8181C17A491CC17200BFEDE783
:1046600001494860704700001C00002010B5044656
:10467000D4E9001251F82200FEF7EAFB10BD000059
:104680001CB53849084600780190FF200A46107092
:104690000846007800909DF8000000F0F0009DF8BA
:1046A0000020904201D1012000E0002050B900BF5D
:1046B000502080F31188BFF34F8FBFF36F8F00BF7F
:1046C00000BFFEE79DF8000000F05000264A107081
:1046D0000720264A106009E024480068401E234A4B
:1046E00010609DF800004006000E00909DF800004C
:1046F00000F080008028EFD01C480068C0F107005F
:10470000042801D1012000E0002050B900BF502052
:1047100080F31188BFF34F8FBFF36F8F00BF00BFCF
:10472000FEE7124800680002104A10601046008838
:1047300000F4E06010600B4A019810700C480068AB
:1047400040F470000A4908600846006840F0704074
:104750000860FFF797FC002006490860FBF7E2FCC1
:1047600000201CBD00E400E0BC030020C0030020CA
:1047700020ED00E0B803002010B500BF502080F30A
:104780001188BFF34F8FBFF36F8F00BF00F0EAFBBC
:1047900018B14FF080500449086000BF002080F33A
:1047A000118800BF10BD000004ED00E02DE9F843C2
:1047B00005460E4617460DB1012000E0002050B915
:1047C00000BF502080F31188BFF34F8FBFF36F8F6E
:1047D00000BF00BFFEE705FB06F808F15000FDF73B
:1047E000C5FE044664B1A14609F15009002084F8D1
:1047F00046003B464A46314628460094FDF772FB88
:104800002046BDE8F8832DE9F84380460E4617465A
:104810001D46DDF82090B8F1000F01D0012000E026
:10482000002050B900BF502080F31188BFF34F8F94
:10483000BFF36F8F00BF00BFFEE70DB1012000E0A6
:10484000002050B900BF502080F31188BFF34F8F74
:10485000BFF36F8F00BF00BFFEE707B10EB10120AD
:1048600000E0002050B900BF502080F31188BFF352
:104870004F8FBFF36F8F00BF00BFFEE707B90EB9C0
:10488000012000E0002050B900BF502080F31188C3
:10489000BFF34F8FBFF36F8F00BF00BFFEE7502005
:1048A00000900098502801D1012000E0002050B96C
:1048B00000BF502080F31188BFF34F8FBFF36F8F7D
:1048C00000BF00BFFEE700BF2C464CB1012084F8BA
:1048D00046004B463A46314640460094FDF702FBFF
:1048E0002046BDE8F883000070B505460E462C460C
:1048F00054B900BF502080F31188BFF34F8FBFF32E
:104900006F8F00BF00BFFEE7FFF722FBD4E90F1255
:10491000206801FB0200A0600020A06320686060A6
:10492000E06B401E226C216800FB0211E160FF2059
:1049300084F8440084F845009EB9206908B9012034
:1049400000E00020A8B904F1100000F0FFFB80B1E6
:104950004FF0805009490860BFF34F8FBFF36F8F4E
:1049600007E004F11000FFF7AFF904F12400FFF7AE
:10497000ABF9FFF717FB012070BD000004ED00E06C
:104980002DE9FF4383B0064688461D464FF00009D7
:10499000344654B900BF502080F31188BFF34F8FC5
:1049A000BFF36F8F00BF00BFFEE7B8F1000F01D16A
:1049B000206C08B9012000E0002050B900BF502051
:1049C00080F31188BFF34F8FBFF36F8F00BF00BF1D
:1049D000FEE7022D02D1E06B012801D1012000E0A9
:1049E000002050B900BF502080F31188BFF34F8FD3
:1049F000BFF36F8F00BF00BFFEE700F09DFA08B95C
:104A0000059808B9012000E0002050B900BF5020EF
:104A100080F31188BFF34F8FBFF36F8F00BF00BFCC
:104A2000FEE700BFFFF794FAA06BE16B884201D369
:104A3000022D28D12A4641462046FDF786F9074631
:104A4000606A08B9012000E0002068B904F1240080
:104A500000F07CFB88B14FF0805032490860BFF312
:104A60004F8FBFF36F8F08E03FB14FF080502D495B
:104A70000860BFF34F8FBFF36F8FFFF793FA0120EA
:104A800007B0BDE8F083059818B9FFF78BFA00204E
:104A9000F6E7B9F1000F04D101A8FFF7ADFB4FF025
:104AA0000109FFF77FFAFFF751FCFFF751FA94F97C
:104AB0004400401C10B9002084F8440094F94500DB
:104AC000401C10B9002084F84500FFF76BFA05A9D7
:104AD00001A800F05BF9F0B92046FDF718FBA0B182
:104AE00004F110000599FFF799FB2046FDF7F3FC50
:104AF00000F078FB002895D14FF0805009490860FC
:104B0000BFF34F8FBFF36F8F8CE72046FDF7E3FCB9
:104B100000F068FB86E72046FDF7DDFC00F062FB55
:104B20000020ADE704ED00E02DE9F84F07468A4686
:104B300090461E463C4654B900BF502080F3118871
:104B4000BFF34F8FBFF36F8F00BF00BFFEE7BAF117
:104B5000000F01D1206C08B9012000E0002050B9FD
:104B600000BF502080F31188BFF34F8FBFF36F8FCA
:104B700000BF00BFFEE7022E02D1E06B012801D189
:104B8000012000E0002050B900BF502080F31188C0
:104B9000BFF34F8FBFF36F8F00BF00BFFEE7FFF77C
:104BA00085FA00BF5021EFF3118081F31188BFF324
:104BB0004F8FBFF36F8F00BF0546A06BE16B88423C
:104BC00001D3022E25D194F945B0A06B0090324656
:104BD00051462046FDF7B9F80BF1010088B9606A2B
:104BE00008B9012000E0002050B904F1240000F0D1
:104BF000ADFA28B1B8F1000F02D00120C8F80000CA
:104C000004E00BF1010040B284F845004FF00109C7
:104C100001E04FF0000900BF85F3118800BF48464E
:104C2000BDE8F88F2DE9F74183B005460E464FF0F9
:104C300000082C4654B900BF502080F31188BFF300
:104C40004F8FBFF36F8F00BF00BFFEE70EB9206C20
:104C500008B9012000E0002050B900BF502080F3C7
:104C60001188BFF34F8FBFF36F8F00BF00BFFEE708
:104C700000F062F908B9059808B9012000E00020A9
:104C800050B900BF502080F31188BFF34F8FBFF39E
:104C90006F8F00BF00BFFEE700BFFFF759F9A76B9A
:104CA000F7B131462046FDF73BF8781EA063206936
:104CB00008B9012000E0002060B904F1100000F004
:104CC00045FA38B14FF080502F490860BFF34F8F3D
:104CD000BFF36F8FFFF766F9012006B0BDE8F081E2
:104CE000059818B9FFF75EF90020F6E7B8F1000F54
:104CF00004D101A8FFF780FA4FF00108FFF752F93D
:104D0000FFF724FBFFF724F994F94400401C10B985
:104D1000002084F8440094F94500401C10B900209C
:104D200084F84500FFF73EF905A901A800F02EF828
:104D3000F0B92046FDF7DEF9A0B104F12400059991
:104D4000FFF76CFA2046FDF7C6FB00F04BFA00288F
:104D5000A3D14FF080500C490860BFF34F8FBFF3D1
:104D60006F8F9AE72046FDF7B6FB00F03BFA94E719
:104D70002046FDF7B0FB00F035FA2046FDF7BAF902
:104D800000288AD00020A8E704ED00E070B50546B1
:104D90000C4655B900BF502080F31188BFF34F8FE8
:104DA000BFF36F8F00BF00BFFEE754B900BF5020B4
:104DB00080F31188BFF34F8FBFF36F8F00BF00BF29
:104DC000FEE7FFF7C5F8124802686868131A206802
:104DD000401C08B9002617E00E4928680968884277
:104DE00004D06868904201D801260DE020689842FE
:104DF00007D92068C01A20602846FFF7FDF9002671
:104E000002E0002020600126FFF7CCF8304670BD9C
:104E1000580300206C0300202DE9FF4F85B0804629
:104E200089461746DDE912ABB800FDF79FFB064641
:104E300056B15C20FDF79AFB04460CB1266304E0F2
:104E40003046FFF7CDF800E000248CB1002084F854
:104E50005900CDE900ABCDE902403A46494640460B
:104E6000089BFDF754F82046FCF7A0FE012501E061
:104E70004FF0FF35284609B0BDE8F08F2DE9F04F1F
:104E800085B00746884691469A46DDE90EB6109CE5
:104E90000EB1012000E0002050B900BF502080F387
:104EA0001188BFF34F8FBFF36F8F00BF00BFFEE7C6
:104EB0000CB1012000E0002050B900BF502080F369
:104EC0001188BFF34F8FBFF36F8F00BF00BFFEE7A6
:104ED0005C20039003985C2801D1012000E00020B1
:104EE00050B900BF502080F31188BFF34F8FBFF33C
:104EF0006F8F00BF00BFFEE700BFB4B1AEB1254663
:104F00002C462E63022085F85900002004A9534640
:104F10004A46CDE900B1CDE9025041463846FCF79A
:104F2000F6FF2846FCF742FE01E0002004900498BA
:104F300005B0BDE8F08F00000549096809B90120F6
:104F400005E00449096809B9022000E00020704723
:104F5000600300207C0300200149086870470000BE
:104F6000580300202DE9F0414FF000084348006845
:104F700000287BD142480068451C4148056015BBAC
:104F800040480068006808B9012000E0002050B9DE
:104F900000BF502080F31188BFF34F8FBFF36F8F96
:104FA00000BF00BFFEE7374807683748006835494B
:104FB00008603548076035480068401C3349086080
:104FC000FDF7DAF900BF3248006885423BD300BFE5
:104FD0002C480068006808B9012000E0002020B1DA
:104FE0004FF0FF302A4908602CE026480068C0686E
:104FF000C4686668B54202D22548066022E0201DDA
:10500000FEF7CBF8A06A18B104F11800FEF7C5F856
:105010002049E06A0968884202D91E49E06A0860AE
:10502000E16A01EB81011C4A02EB8100211DFEF7C0
:1050300075FE1A49E06A0968C96A8842C8D34FF008
:105040000108C5E700BF15480068C06A00EB800092
:10505000114951F82000012801D94FF001081048EA
:10506000006808B14FF0010805E0FFE70D4800684F
:10507000401C0C4908604046BDE8F0817C030020DC
:1050800058030020480300204C0300206C0300203C
:10509000740300205C030020CC0B0020440300209C
:1050A000680300206403002070B505462C460026E6
:1050B000002D43D022480068844201D1012000E045
:1050C000002050B900BF502080F31188BFF34F8FEC
:1050D000BFF36F8F00BF00BFFEE7206D50B900BF68
:1050E000502080F31188BFF34F8FBFF36F8F00BF45
:1050F00000BFFEE7206D401E2065E16CE06A88423B
:105100001CD0206DD0B9201DFEF747F8E06CE0629E
:10511000E06AC0F13800A0610A49E06A0968884283
:1051200002D90849E06A0860E16A01EB8101064A98
:1051300002EB8100211DFEF7F1FD0126304670BD16
:10514000440300205C030020CC0B002070B5064611
:10515000F068C46854B900BF502080F31188BFF3D1
:105160004F8FBFF36F8F00BF00BFFEE704F1180041
:10517000FEF713F815480068A0B9201DFEF70DF8DA
:105180001349E06A0968884202D91149E06A086057
:10519000E16A01EB81010F4A02EB8100211DFEF75C
:1051A000BDFD04E004F118010B48FEF7B7FD0B4903
:1051B000E06A0968C96A884204D9012501200849C2
:1051C000086000E00025284670BD00007C03002038
:1051D0005C030020CC0B002054100020440300206E
:1051E0006803002070B5002400263648006850B9D6
:1051F00000BF502080F31188BFF34F8FBFF36F8F34
:1052000000BF00BFFEE7FEF7A3FE2E480068401E69
:105210002C4908600846006800284ED12A480068DA
:1052200000284AD023E02948C068C46804F1180067
:10523000FDF7B3FF201DFDF7B0FF2549E06A0968BF
:10524000884202D92249E06A0860E16A01EB8101E3
:10525000204A02EB8100211DFEF760FD1E49E06A35
:105260000968C96A884202D301201C4908601748AE
:10527000006808B9012000E000200028D3D00CB15C
:10528000FDF77AF81648056865B100BFFFF76AFEBA
:1052900010B10120114908606D1E002DF6D10020CB
:1052A0000F4908600D48006838B1012630070D49E4
:1052B0000860BFF34F8FBFF36F8FFEF773FE30466A
:1052C00070BD00007C030020540300205410002017
:1052D0005C030020CC0B0020440300206803002066
:1052E0006403002004ED00E010B586B00024FCF754
:1052F000B9FC16480068D0B100200590049003AABC
:1053000004A905A8FDF76AFF0222DDE904100023C5
:10531000CDE9002102900EA10F48039AFFF7AEFDE0
:105320000E4908600846006800B1012400BF54B966
:1053300000BF502080F31188BFF34F8FBFF36F8FF2
:1053400000BF00BFFEE7204606B010BD8803002066
:10535000546D722053766300BD2400088C03002036
:105360002DE9FF4704460D4616461F46DDF83080FE
:105370004FF0000954B900BF502080F31188BFF3EB
:105380004F8FBFF36F8F00BF00BFFEE71448006868
:1053900010B3009501960294062D15DAFFF7CCFDA7
:1053A000022808D10023424669460D480068FFF7ED
:1053B000E7FA814610E000231A466946084800686B
:1053C000FFF7DEFA814607E000233A4669460448C3
:1053D0000068FFF7A9FB8146484604B0BDE8F087A6
:1053E000880300204C4544004F4E004F4646005471
:1053F0004F47474C4500424C494E4B00307E3820C9
:10540000317E313030303020317E3130303030003C
:10541000E4530008E8530008FC53000801000000B2
:10542000A9340008E4530008EB530008FC530008BB
:105430000100000059340008E4530008EF5300084D
:10544000FC53000801000000F9340008E453000890
:10545000F6530008FC5300080200000091330008D6
:10546000E4530008F6530008FC5300080300000052
:10547000F5330008000000000000000000000000FC
:10548000000000003F40000000000000000030006D
:10549000400030004000000009000BC03D000BC080
:1054A0003D00090018C024407FE022403180000008
:1054B000180024C01B000D803240018003801C4076
:1054C00027401C80074000401000600000000000E2
:1054D000000000000000000000001F80204040206D
:1054E0000000402020401F8000000000090006004E
:1054F0001F80060009000000040004003F80040033
:105500000400000000100060000000000000000027
:105510000400040004000400040000000000004037
:105520000000000000000000002001C0060038005C
:10553000400000001F802040204020401F800000CD
:10554000000010403FC000400000000018C0214093
:105550002240244018400000108020402440244075
:105560001B80000002000D0011003FC00140000040
:105570003C80244024402440238000001F8024409D
:1055800024403440038000003000200027C0380051
:10559000200000001B802440244024401B80000089
:1055A0001C0022C0224022401F800000000000009A
:1055B000084000000000000000000000046000003F
:1055C00000000000000004000A001100208040409C
:1055D000090009000900090009000000000040401E
:1055E000208011000A00040018002000234024003D
:1055F000180000001F802040274029401F40000065
:10560000004007C039000F0001C0004020403FC0EB
:10561000244024401B8000001F8020402040204068
:105620003080000020403FC0204020401F8000000C
:1056300020403FC024402E4030C0000020403FC0EA
:1056400024402E00300000000F0010802040224037
:105650003380020020403FC0040004003FC02040CF
:10566000204020403FC0204020400000006020201B
:1056700020203FC02000200020403FC024400B00DD
:1056800030C0204020403FC020400040004000C0CB
:105690003FC03C0003C03C003FC0000020403FC072
:1056A0000C4023003FC020001F80204020402040AD
:1056B0001F80000020403FC024402400180000004C
:1056C0001F802140214020E01FA0000020403FC05B
:1056D0002440260019C0004018C024402440224025
:1056E00031800000300020403FC0204030000000EA
:1056F00020003F80004000403F80200020003E000E
:1057000001C0070038002000380007C03C0007C077
:1057100038000000204039C0060039C02040000099
:105720002000384007C0384020000000304021C031
:105730002640384020C00000000000007FE04020EC
:1057400040200000000070000C00038000400000BA
:105750000000402040207FE000000000000020000A
:105760004000200000000000001000100010001099
:1057700000100010000000004000000000000000C9
:10578000000002800540054003C0004020003FC0EB
:1057900004400440038000000000038004400440F3
:1057A0000640000000000380044024403FC0004049
:1057B0000000038005400540034000000000044055
:1057C0001FC0244024402000000002E00550055086
:1057D0000650042020403FC00440040003C00040A5
:1057E0000000044027C0004000000000001000102E
:1057F000041027E00000000020403FC001400700E7
:1058000004C00440204020403FC000400040000051
:1058100007C0040007C0040003C00000044007C024
:105820000440040003C00040000003800440044022
:1058300003800000041007F00450044003800000BF
:10584000000003800440045007F00010044007C02B
:10585000024004000400000000000640054005402E
:1058600004C00000000004001F800440004000004D
:10587000040007800040044007C000400400070007
:1058800004C0018006000400060001C0070001C03A
:1058900006000000044006C0010006C004400000ED
:1058A0000410071004E0018006000400000004401A
:1058B00005C00640044000000000000004007BE03A
:1058C00040200000000000000000FFF00000000089
:1058D000000040207BE00400000000004000800049
:1058E00040002000200040000000000000000000F8
:1058F00000000000000000000000000000001FCCBD
:10590000000C0000000000000000080030006000F3
:105910000800300060000000022003FC1E2002206E
:1059200003FC1E200220000000000E1811043FFF9F
:1059300010840C78000000000F0010840F3800C0A5
:10594000077818840078000000780F8410C41124B0
:105950000E9800E400840008080068007000000051
:10596000000000000000000000000000000007E050
:1059700018182004400200000000400220041818FB
:1059800007E00000000000000240024001800FF02C
:1059900001800240024000000080008000800FF87B
:1059A00000800080008000000001000D000E00005B
:1059B0000000000000000000000000800080008067
:1059C00000800080008000800000000C000C0000BF
:1059D0000000000000000000000000060018006049
:1059E0000180060018002000000007F008081004DD
:1059F0001004080807F000000000080408041FFC59
:105A0000000400040000000000000E0C101410241C
:105A1000104411840E0C000000000C181004110436
:105A2000110412880C700000000000E00320042420
:105A300008241FFC0024000000001F98108411049B
:105A40001104108810700000000007F0088811048D
:105A5000110418880070000000001C00100010FCE9
:105A600013001C001000000000000E3811441084C8
:105A7000108411440E38000000000700088C104408
:105A80001044088807F00000000000000000030C2C
:105A9000030C0000000000000000000000010106EF
:105AA0000000000000000000000000800140022013
:105AB0000410080810040000022002200220022026
:105AC0000220022002200000000010040808041038
:105AD000022001400080000000000E001200100CA7
